:1000000000308A00222800001030831685008312F9
:100010008501FF3083168600831286012C28243048
:10002000840000080319212806308D008C018C0BF8
:1000300017288D0B16287B308C008C0B1D28800B0D
:100040001428080003081F398300FE309400900133
:100050009101920193010428A1012108023C031C93
:1000600053281E302107A4001B30210784000008FC
:10007000A50024088400250880001B302107840087
:100080000608A5002108073C8D0001308C008D0872
:1000900003194E2803108C0D8D0B4A280C082505DA
:1000A0008000A10A2D289C08031D592806308500D0
:1000B00080289B08031D64280A3085000830A400AE
:1000C0000F200130A20080289D08031D6F280530F5
:1000D00085000830A4000F200130A2008028A20A69
:1000E000093085000330A4000F208501A6308C0064
:1000F0008C0B78280000023085000130A4000F200E
:100100000130A4000F208501A6308C008C0B8628BE
:1001100000002C2806309500C83096000430970067
:10012000FE3094009408031DA32816081402031837
:100130009C28150885009E28170885006430A400B7
:0A0140000F2094039228902863001A
:02400E00F23F7F
:00000001FF
;PIC16F84A
;CRC=2DD5  CREATED="22-10-15 18:02"
