:1000000000308A0064280000831A0A289000030E3A
:1000100091000F2883129000030E910091140A089A
:1000200097008A018313900E040892000C08930035
:100030000D0894000E0895000F08960083128B1E81
:1000400023280B1949281208840013088C0014086F
:100050008D0015088E0016088F0017088A00110EF3
:1000600083008312100E9118831609002F3084002C
:1000700000080319482806308D008C018C0B3E289F
:100080008D0B3D287B308C008C0B4428800B3B284B
:1000900008000B199D030B11AC0A6430AF00362029
:1000A0000B118A11232883160108C03907388100F3
:1000B0001030850083128501FF308316860083127D
:1000C00086018B168B176E2803081F398300FE30BC
:1000D0009D0099019A019B019C015328AA012A08BD
:1000E000023C031C952827302A07AD0024302A073C
:1000F00084000008AE002D0884002E088000243003
:100100002A0784000608AE002A08073C8D0001304B
:100110008C008D080319902803108C0D8D0B8C28F2
:100120000C082E058000AA0A6F28A508031D9B282D
:1001300006308500DA28A408031DAC280A308500A3
:1001400098018B1B98178B130830AF003620981B33
:100150008B170130AB00DA28A608031DBD28053037
:10016000850098018B1B98178B130830AF00362041
:10017000981B8B170130AB00DA28AB0A09308500D9
:1001800098018B1B98178B130330AF003620981BF8
:100190008B178501A6308C008C0BCC280000023018
:1001A000850098018B1B98178B130130AF00362008
:1001B000981B8B1798018B1B98178B130130AF007E
:1001C0003620981B8B178501A6308C008C0BE628F7
:1001D00000002C08C83C031DF8280F30850098014A
:1001E0008B1B98178B136430AF003620981B8B172E
:1001F0006E280230850098018B1B98178B130130F5
:0C020000AF003620981B8B17F928630014
:02400E00F23F7F
:00000001FF
;PIC16F84A
;CRC=9CAD  CREATED="22-10-15 17:57"
