:1000000000308A00242800001030831685008312F7
:100010008501FF3083168600831286010230A2001C
:100020002E282430840000080319232806308D0070
:100030008C018C0B19288D0B18287B308C008C0BB5
:100040001F28800B1628080003081F398300FE3084
:10005000940090019101920193010428A1012108CB
:10006000023C031C55281E302107A4001B30210729
:1000700084000008A50024088400250880001B30A7
:10008000210784000608A5002108073C8D000130E7
:100090008C008D080319502803108C0D8D0B4C28F3
:1000A0000C0825058000A10A2F289C08031D5F2845
:1000B000063085000430A4001120A201A3281B0BE8
:1000C0006C289D08031D6C280A3085000430A400AC
:1000D00011200130A200A3289B08031D79281D0BC5
:1000E0007928053085000430A40011200130A200D9
:1000F000A3289B08031D85289D08031D852809301A
:1001000085000430A4001120A328A208031D8B2819
:1001100006308500A328220BA3280930850006306D
:10012000A400112005308500A40011209E08031DA5
:100130009C28A00803199C280F308500A6308C004D
:100140008C0BA02800000430A40011200F30850083
:0E015000A6308C008C0BAA2800002E2863001D
:02400E00F23F7F
:00000001FF
;PIC16F84A
;CRC=D72B  CREATED="29-10-15 17:58"
